{
  "_format": "hh-sol-artifact-1",
  "contractName": "RealEstateTokenization",
  "sourceName": "contracts/rwa.sol",
  "abi": [
    {
      "inputs": [
        {
          "internalType": "address",
          "name": "initialOwner",
          "type": "address"
        }
      ],
      "stateMutability": "nonpayable",
      "type": "constructor"
    },
    {
      "inputs": [
        {
          "internalType": "address",
          "name": "owner",
          "type": "address"
        }
      ],
      "name": "OwnableInvalidOwner",
      "type": "error"
    },
    {
      "inputs": [
        {
          "internalType": "address",
          "name": "account",
          "type": "address"
        }
      ],
      "name": "OwnableUnauthorizedAccount",
      "type": "error"
    },
    {
      "anonymous": false,
      "inputs": [
        {
          "indexed": true,
          "internalType": "address",
          "name": "previousOwner",
          "type": "address"
        },
        {
          "indexed": true,
          "internalType": "address",
          "name": "newOwner",
          "type": "address"
        }
      ],
      "name": "OwnershipTransferred",
      "type": "event"
    },
    {
      "anonymous": false,
      "inputs": [
        {
          "indexed": true,
          "internalType": "uint256",
          "name": "id",
          "type": "uint256"
        },
        {
          "indexed": false,
          "internalType": "string",
          "name": "name",
          "type": "string"
        },
        {
          "indexed": false,
          "internalType": "string",
          "name": "location",
          "type": "string"
        },
        {
          "indexed": false,
          "internalType": "uint256",
          "name": "totalValue",
          "type": "uint256"
        }
      ],
      "name": "RealEstateCreated",
      "type": "event"
    },
    {
      "anonymous": false,
      "inputs": [
        {
          "indexed": true,
          "internalType": "uint256",
          "name": "id",
          "type": "uint256"
        },
        {
          "indexed": false,
          "internalType": "address",
          "name": "tokenAddress",
          "type": "address"
        }
      ],
      "name": "RealEstateTokenized",
      "type": "event"
    },
    {
      "anonymous": false,
      "inputs": [
        {
          "indexed": true,
          "internalType": "uint256",
          "name": "realEstateId",
          "type": "uint256"
        },
        {
          "indexed": true,
          "internalType": "address",
          "name": "user",
          "type": "address"
        },
        {
          "indexed": false,
          "internalType": "uint256",
          "name": "amount",
          "type": "uint256"
        }
      ],
      "name": "YieldClaimed",
      "type": "event"
    },
    {
      "anonymous": false,
      "inputs": [
        {
          "indexed": true,
          "internalType": "uint256",
          "name": "realEstateId",
          "type": "uint256"
        },
        {
          "indexed": false,
          "internalType": "uint256",
          "name": "amount",
          "type": "uint256"
        }
      ],
      "name": "YieldDistributed",
      "type": "event"
    },
    {
      "inputs": [
        {
          "internalType": "uint256",
          "name": "realEstateId",
          "type": "uint256"
        }
      ],
      "name": "claimYield",
      "outputs": [],
      "stateMutability": "nonpayable",
      "type": "function"
    },
    {
      "inputs": [
        {
          "internalType": "string",
          "name": "name",
          "type": "string"
        },
        {
          "internalType": "string",
          "name": "location",
          "type": "string"
        },
        {
          "internalType": "uint256",
          "name": "totalValue",
          "type": "uint256"
        }
      ],
      "name": "createRealEstate",
      "outputs": [],
      "stateMutability": "nonpayable",
      "type": "function"
    },
    {
      "inputs": [
        {
          "internalType": "uint256",
          "name": "realEstateId",
          "type": "uint256"
        }
      ],
      "name": "distributeYield",
      "outputs": [],
      "stateMutability": "payable",
      "type": "function"
    },
    {
      "inputs": [
        {
          "internalType": "uint256",
          "name": "id",
          "type": "uint256"
        }
      ],
      "name": "getRealEstate",
      "outputs": [
        {
          "internalType": "string",
          "name": "name",
          "type": "string"
        },
        {
          "internalType": "string",
          "name": "location",
          "type": "string"
        },
        {
          "internalType": "uint256",
          "name": "totalValue",
          "type": "uint256"
        },
        {
          "internalType": "address",
          "name": "tokenAddress",
          "type": "address"
        },
        {
          "internalType": "bool",
          "name": "isTokenized",
          "type": "bool"
        },
        {
          "internalType": "uint256",
          "name": "totalYieldDistributed",
          "type": "uint256"
        }
      ],
      "stateMutability": "view",
      "type": "function"
    },
    {
      "inputs": [],
      "name": "nextId",
      "outputs": [
        {
          "internalType": "uint256",
          "name": "",
          "type": "uint256"
        }
      ],
      "stateMutability": "view",
      "type": "function"
    },
    {
      "inputs": [],
      "name": "owner",
      "outputs": [
        {
          "internalType": "address",
          "name": "",
          "type": "address"
        }
      ],
      "stateMutability": "view",
      "type": "function"
    },
    {
      "inputs": [
        {
          "internalType": "uint256",
          "name": "",
          "type": "uint256"
        }
      ],
      "name": "realEstates",
      "outputs": [
        {
          "internalType": "uint256",
          "name": "id",
          "type": "uint256"
        },
        {
          "internalType": "string",
          "name": "name",
          "type": "string"
        },
        {
          "internalType": "string",
          "name": "location",
          "type": "string"
        },
        {
          "internalType": "uint256",
          "name": "totalValue",
          "type": "uint256"
        },
        {
          "internalType": "address",
          "name": "tokenAddress",
          "type": "address"
        },
        {
          "internalType": "uint256",
          "name": "totalYieldDistributed",
          "type": "uint256"
        },
        {
          "internalType": "bool",
          "name": "isTokenized",
          "type": "bool"
        }
      ],
      "stateMutability": "view",
      "type": "function"
    },
    {
      "inputs": [],
      "name": "renounceOwnership",
      "outputs": [],
      "stateMutability": "nonpayable",
      "type": "function"
    },
    {
      "inputs": [
        {
          "internalType": "uint256",
          "name": "id",
          "type": "uint256"
        },
        {
          "internalType": "string",
          "name": "tokenName",
          "type": "string"
        },
        {
          "internalType": "string",
          "name": "tokenSymbol",
          "type": "string"
        },
        {
          "internalType": "uint256",
          "name": "totalSupply",
          "type": "uint256"
        }
      ],
      "name": "tokenizeRealEstate",
      "outputs": [],
      "stateMutability": "nonpayable",
      "type": "function"
    },
    {
      "inputs": [
        {
          "internalType": "address",
          "name": "newOwner",
          "type": "address"
        }
      ],
      "name": "transferOwnership",
      "outputs": [],
      "stateMutability": "nonpayable",
      "type": "function"
    }
  ],
  "bytecode": "0x60806040526001805534801561001457600080fd5b50604051613b2d380380613b2d833981810160405281019061003691906101e6565b80600073ffffffffffffffffffffffffffffffffffffffff168173ffffffffffffffffffffffffffffffffffffffff16036100a95760006040517f1e4fbdf70000000000000000000000000000000000000000000000000000000081526004016100a09190610222565b60405180910390fd5b6100b8816100bf60201b60201c565b505061023d565b60008060009054906101000a900473ffffffffffffffffffffffffffffffffffffffff169050816000806101000a81548173ffffffffffffffffffffffffffffffffffffffff021916908373ffffffffffffffffffffffffffffffffffffffff1602179055508173ffffffffffffffffffffffffffffffffffffffff168173ffffffffffffffffffffffffffffffffffffffff167f8be0079c531659141344cd1fd0a4f28419497f9722a3daafe3b4186f6b6457e060405160405180910390a35050565b600080fd5b600073ffffffffffffffffffffffffffffffffffffffff82169050919050565b60006101b382610188565b9050919050565b6101c3816101a8565b81146101ce57600080fd5b50565b6000815190506101e0816101ba565b92915050565b6000602082840312156101fc576101fb610183565b5b600061020a848285016101d1565b91505092915050565b61021c816101a8565b82525050565b60006020820190506102376000830184610213565b92915050565b6138e18061024c6000396000f3fe6080604052600436106100915760003560e01c80638c180039116100595780638c1800391461016c5780638da5cb5b1461019557806399395945146101c0578063c8cc5cd814610203578063f2fde38b1461021f57610091565b806340bd2e2314610096578063488a7c96146100bf57806361b8ce8c146100e8578063715018a61461011357806377ac95181461012a575b600080fd5b3480156100a257600080fd5b506100bd60048036038101906100b89190610ef7565b610248565b005b3480156100cb57600080fd5b506100e660048036038101906100e1919061106a565b6105bd565b005b3480156100f457600080fd5b506100fd6106d2565b60405161010a9190611104565b60405180910390f35b34801561011f57600080fd5b506101286106d8565b005b34801561013657600080fd5b50610151600480360381019061014c9190610ef7565b6106ec565b604051610163969594939291906111fa565b60405180910390f35b34801561017857600080fd5b50610193600480360381019061018e9190611269565b610883565b005b3480156101a157600080fd5b506101aa610a15565b6040516101b79190611308565b60405180910390f35b3480156101cc57600080fd5b506101e760048036038101906101e29190610ef7565b610a3e565b6040516101fa9796959493929190611323565b60405180910390f35b61021d60048036038101906102189190610ef7565b610bbd565b005b34801561022b57600080fd5b50610246600480360381019061024191906113cc565b610cc7565b005b60006002600083815260200190815260200160002090508060070160009054906101000a900460ff166102b0576040517f08c379a00000000000000000000000000000000000000000000000000000000081526004016102a790611445565b60405180910390fd5b60008160040160009054906101000a900473ffffffffffffffffffffffffffffffffffffffff169050600081905060008173ffffffffffffffffffffffffffffffffffffffff166370a08231336040518263ffffffff1660e01b81526004016103199190611308565b602060405180830381865afa158015610336573d6000803e3d6000fd5b505050506040513d601f19601f8201168201806040525081019061035a919061147a565b90506000811161039f576040517f08c379a0000000000000000000000000000000000000000000000000000000008152600401610396906114f3565b60405180910390fd5b60008273ffffffffffffffffffffffffffffffffffffffff166318160ddd6040518163ffffffff1660e01b8152600401602060405180830381865afa1580156103ec573d6000803e3d6000fd5b505050506040513d601f19601f82011682018060405250810190610410919061147a565b90506000818387600501546104259190611542565b61042f91906115b3565b905060008660060160003373ffffffffffffffffffffffffffffffffffffffff1673ffffffffffffffffffffffffffffffffffffffff168152602001908152602001600020548261048091906115e4565b9050600081116104c5576040517f08c379a00000000000000000000000000000000000000000000000000000000081526004016104bc90611664565b60405180910390fd5b808760060160003373ffffffffffffffffffffffffffffffffffffffff1673ffffffffffffffffffffffffffffffffffffffff16815260200190815260200160002060008282546105169190611684565b925050819055503373ffffffffffffffffffffffffffffffffffffffff166108fc829081150290604051600060405180830381858888f19350505050158015610563573d6000803e3d6000fd5b503373ffffffffffffffffffffffffffffffffffffffff16887f1448cb68839238fd008abe5bad73d996f9849e020313466fa9f3476d98006df2836040516105ab9190611104565b60405180910390a35050505050505050565b6105c5610d4d565b60008111610608576040517f08c379a00000000000000000000000000000000000000000000000000000000081526004016105ff9061172a565b60405180910390fd5b6000600260006001548152602001908152602001600020905060015481600001819055508381600101908161063d9190611956565b508281600201908161064f9190611956565b5081816003018190555060008160070160006101000a81548160ff0219169083151502179055506001547f21d3541329f4e87ffa65d0cf8f23d888d14691973710617bab539475a5d29aa08585856040516106ac93929190611a28565b60405180910390a2600160008154809291906106c790611a6d565b919050555050505050565b60015481565b6106e0610d4d565b6106ea6000610dd4565b565b6060806000806000806000600260008981526020019081526020016000209050806001018160020182600301548360040160009054906101000a900473ffffffffffffffffffffffffffffffffffffffff168460070160009054906101000a900460ff16856005015485805461076190611779565b80601f016020809104026020016040519081016040528092919081815260200182805461078d90611779565b80156107da5780601f106107af576101008083540402835291602001916107da565b820191906000526020600020905b8154815290600101906020018083116107bd57829003601f168201915b505050505095508480546107ed90611779565b80601f016020809104026020016040519081016040528092919081815260200182805461081990611779565b80156108665780601f1061083b57610100808354040283529160200191610866565b820191906000526020600020905b81548152906001019060200180831161084957829003601f168201915b505050505094509650965096509650965096505091939550919395565b61088b610d4d565b60006002600086815260200190815260200160002090508060070160009054906101000a900460ff16156108f4576040517f08c379a00000000000000000000000000000000000000000000000000000000081526004016108eb90611b01565b60405180910390fd5b60008211610937576040517f08c379a000000000000000000000000000000000000000000000000000000000815260040161092e90611b93565b60405180910390fd5b60008484843360405161094990610ea0565b6109569493929190611bb3565b604051809103906000f080158015610972573d6000803e3d6000fd5b509050808260040160006101000a81548173ffffffffffffffffffffffffffffffffffffffff021916908373ffffffffffffffffffffffffffffffffffffffff16021790555060018260070160006101000a81548160ff021916908315150217905550857f75ffd19461cdd8de6d539c3c3eee94904f2cd7ce4817c424ccc4cd84062d19db82604051610a059190611308565b60405180910390a2505050505050565b60008060009054906101000a900473ffffffffffffffffffffffffffffffffffffffff16905090565b6002602052806000526040600020600091509050806000015490806001018054610a6790611779565b80601f0160208091040260200160405190810160405280929190818152602001828054610a9390611779565b8015610ae05780601f10610ab557610100808354040283529160200191610ae0565b820191906000526020600020905b815481529060010190602001808311610ac357829003601f168201915b505050505090806002018054610af590611779565b80601f0160208091040260200160405190810160405280929190818152602001828054610b2190611779565b8015610b6e5780601f10610b4357610100808354040283529160200191610b6e565b820191906000526020600020905b815481529060010190602001808311610b5157829003601f168201915b5050505050908060030154908060040160009054906101000a900473ffffffffffffffffffffffffffffffffffffffff16908060050154908060070160009054906101000a900460ff16905087565b610bc5610d4d565b60006002600083815260200190815260200160002090508060070160009054906101000a900460ff16610c2d576040517f08c379a0000000000000000000000000000000000000000000000000000000008152600401610c2490611445565b60405180910390fd5b60003411610c70576040517f08c379a0000000000000000000000000000000000000000000000000000000008152600401610c6790611c78565b60405180910390fd5b34816005016000828254610c849190611684565b92505081905550817ffe4996cd48c364c468cee70dd6b9061874ff01b05c5ea49311cbcabd9b9cb61534604051610cbb9190611104565b60405180910390a25050565b610ccf610d4d565b600073ffffffffffffffffffffffffffffffffffffffff168173ffffffffffffffffffffffffffffffffffffffff1603610d415760006040517f1e4fbdf7000000000000000000000000000000000000000000000000000000008152600401610d389190611308565b60405180910390fd5b610d4a81610dd4565b50565b610d55610e98565b73ffffffffffffffffffffffffffffffffffffffff16610d73610a15565b73ffffffffffffffffffffffffffffffffffffffff1614610dd257610d96610e98565b6040517f118cdaa7000000000000000000000000000000000000000000000000000000008152600401610dc99190611308565b60405180910390fd5b565b60008060009054906101000a900473ffffffffffffffffffffffffffffffffffffffff169050816000806101000a81548173ffffffffffffffffffffffffffffffffffffffff021916908373ffffffffffffffffffffffffffffffffffffffff1602179055508173ffffffffffffffffffffffffffffffffffffffff168173ffffffffffffffffffffffffffffffffffffffff167f8be0079c531659141344cd1fd0a4f28419497f9722a3daafe3b4186f6b6457e060405160405180910390a35050565b600033905090565b611c1380611c9983390190565b6000604051905090565b600080fd5b600080fd5b6000819050919050565b610ed481610ec1565b8114610edf57600080fd5b50565b600081359050610ef181610ecb565b92915050565b600060208284031215610f0d57610f0c610eb7565b5b6000610f1b84828501610ee2565b91505092915050565b600080fd5b600080fd5b6000601f19601f8301169050919050565b7f4e487b7100000000000000000000000000000000000000000000000000000000600052604160045260246000fd5b610f7782610f2e565b810181811067ffffffffffffffff82111715610f9657610f95610f3f565b5b80604052505050565b6000610fa9610ead565b9050610fb58282610f6e565b919050565b600067ffffffffffffffff821115610fd557610fd4610f3f565b5b610fde82610f2e565b9050602081019050919050565b82818337600083830152505050565b600061100d61100884610fba565b610f9f565b90508281526020810184848401111561102957611028610f29565b5b611034848285610feb565b509392505050565b600082601f83011261105157611050610f24565b5b8135611061848260208601610ffa565b91505092915050565b60008060006060848603121561108357611082610eb7565b5b600084013567ffffffffffffffff8111156110a1576110a0610ebc565b5b6110ad8682870161103c565b935050602084013567ffffffffffffffff8111156110ce576110cd610ebc565b5b6110da8682870161103c565b92505060406110eb86828701610ee2565b9150509250925092565b6110fe81610ec1565b82525050565b600060208201905061111960008301846110f5565b92915050565b600081519050919050565b600082825260208201905092915050565b60005b8381101561115957808201518184015260208101905061113e565b60008484015250505050565b60006111708261111f565b61117a818561112a565b935061118a81856020860161113b565b61119381610f2e565b840191505092915050565b600073ffffffffffffffffffffffffffffffffffffffff82169050919050565b60006111c98261119e565b9050919050565b6111d9816111be565b82525050565b60008115159050919050565b6111f4816111df565b82525050565b600060c08201905081810360008301526112148189611165565b905081810360208301526112288188611165565b905061123760408301876110f5565b61124460608301866111d0565b61125160808301856111eb565b61125e60a08301846110f5565b979650505050505050565b6000806000806080858703121561128357611282610eb7565b5b600061129187828801610ee2565b945050602085013567ffffffffffffffff8111156112b2576112b1610ebc565b5b6112be8782880161103c565b935050604085013567ffffffffffffffff8111156112df576112de610ebc565b5b6112eb8782880161103c565b92505060606112fc87828801610ee2565b91505092959194509250565b600060208201905061131d60008301846111d0565b92915050565b600060e082019050611338600083018a6110f5565b818103602083015261134a8189611165565b9050818103604083015261135e8188611165565b905061136d60608301876110f5565b61137a60808301866111d0565b61138760a08301856110f5565b61139460c08301846111eb565b98975050505050505050565b6113a9816111be565b81146113b457600080fd5b50565b6000813590506113c6816113a0565b92915050565b6000602082840312156113e2576113e1610eb7565b5b60006113f0848285016113b7565b91505092915050565b7f5265616c20657374617465206973206e6f7420746f6b656e697a656400000000600082015250565b600061142f601c8361112a565b915061143a826113f9565b602082019050919050565b6000602082019050818103600083015261145e81611422565b9050919050565b60008151905061147481610ecb565b92915050565b6000602082840312156114905761148f610eb7565b5b600061149e84828501611465565b91505092915050565b7f4e6f20746f6b656e73206f776e65640000000000000000000000000000000000600082015250565b60006114dd600f8361112a565b91506114e8826114a7565b602082019050919050565b6000602082019050818103600083015261150c816114d0565b9050919050565b7f4e487b7100000000000000000000000000000000000000000000000000000000600052601160045260246000fd5b600061154d82610ec1565b915061155883610ec1565b925082820261156681610ec1565b9150828204841483151761157d5761157c611513565b5b5092915050565b7f4e487b7100000000000000000000000000000000000000000000000000000000600052601260045260246000fd5b60006115be82610ec1565b91506115c983610ec1565b9250826115d9576115d8611584565b5b828204905092915050565b60006115ef82610ec1565b91506115fa83610ec1565b925082820390508181111561161257611611611513565b5b92915050565b7f4e6f207969656c6420746f20636c61696d000000000000000000000000000000600082015250565b600061164e60118361112a565b915061165982611618565b602082019050919050565b6000602082019050818103600083015261167d81611641565b9050919050565b600061168f82610ec1565b915061169a83610ec1565b92508282019050808211156116b2576116b1611513565b5b92915050565b7f546f74616c2076616c7565206d7573742062652067726561746572207468616e60008201527f2030000000000000000000000000000000000000000000000000000000000000602082015250565b600061171460228361112a565b915061171f826116b8565b604082019050919050565b6000602082019050818103600083015261174381611707565b9050919050565b7f4e487b7100000000000000000000000000000000000000000000000000000000600052602260045260246000fd5b6000600282049050600182168061179157607f821691505b6020821081036117a4576117a361174a565b5b50919050565b60008190508160005260206000209050919050565b60006020601f8301049050919050565b600082821b905092915050565b60006008830261180c7fffffffffffffffffffffffffffffffffffffffffffffffffffffffffffffffff826117cf565b61181686836117cf565b95508019841693508086168417925050509392505050565b6000819050919050565b600061185361184e61184984610ec1565b61182e565b610ec1565b9050919050565b6000819050919050565b61186d83611838565b6118816118798261185a565b8484546117dc565b825550505050565b600090565b611896611889565b6118a1818484611864565b505050565b5b818110156118c5576118ba60008261188e565b6001810190506118a7565b5050565b601f82111561190a576118db816117aa565b6118e4846117bf565b810160208510156118f3578190505b6119076118ff856117bf565b8301826118a6565b50505b505050565b600082821c905092915050565b600061192d6000198460080261190f565b1980831691505092915050565b6000611946838361191c565b9150826002028217905092915050565b61195f8261111f565b67ffffffffffffffff81111561197857611977610f3f565b5b6119828254611779565b61198d8282856118c9565b600060209050601f8311600181146119c057600084156119ae578287015190505b6119b8858261193a565b865550611a20565b601f1984166119ce866117aa565b60005b828110156119f6578489015182556001820191506020850194506020810190506119d1565b86831015611a135784890151611a0f601f89168261191c565b8355505b6001600288020188555050505b505050505050565b60006060820190508181036000830152611a428186611165565b90508181036020830152611a568185611165565b9050611a6560408301846110f5565b949350505050565b6000611a7882610ec1565b91507fffffffffffffffffffffffffffffffffffffffffffffffffffffffffffffffff8203611aaa57611aa9611513565b5b600182019050919050565b7f416c726561647920746f6b656e697a6564000000000000000000000000000000600082015250565b6000611aeb60118361112a565b9150611af682611ab5565b602082019050919050565b60006020820190508181036000830152611b1a81611ade565b9050919050565b7f546f74616c20737570706c79206d75737420626520677265617465722074686160008201527f6e20300000000000000000000000000000000000000000000000000000000000602082015250565b6000611b7d60238361112a565b9150611b8882611b21565b604082019050919050565b60006020820190508181036000830152611bac81611b70565b9050919050565b60006080820190508181036000830152611bcd8187611165565b90508181036020830152611be18186611165565b9050611bf060408301856110f5565b611bfd60608301846111d0565b95945050505050565b7f5969656c6420616d6f756e74206d75737420626520677265617465722074686160008201527f6e20300000000000000000000000000000000000000000000000000000000000602082015250565b6000611c6260238361112a565b9150611c6d82611c06565b604082019050919050565b60006020820190508181036000830152611c9181611c55565b905091905056fe608060405234801561001057600080fd5b50604051611c13380380611c138339818101604052810190610032919061066e565b80848481600390816100449190610924565b5080600490816100549190610924565b505050600073ffffffffffffffffffffffffffffffffffffffff168173ffffffffffffffffffffffffffffffffffffffff16036100c95760006040517f1e4fbdf70000000000000000000000000000000000000000000000000000000081526004016100c09190610a05565b60405180910390fd5b6100d8816100f260201b60201c565b506100e981836101b860201b60201c565b50505050610ae4565b6000600560009054906101000a900473ffffffffffffffffffffffffffffffffffffffff16905081600560006101000a81548173ffffffffffffffffffffffffffffffffffffffff021916908373ffffffffffffffffffffffffffffffffffffffff1602179055508173ffffffffffffffffffffffffffffffffffffffff168173ffffffffffffffffffffffffffffffffffffffff167f8be0079c531659141344cd1fd0a4f28419497f9722a3daafe3b4186f6b6457e060405160405180910390a35050565b600073ffffffffffffffffffffffffffffffffffffffff168273ffffffffffffffffffffffffffffffffffffffff160361022a5760006040517fec442f050000000000000000000000000000000000000000000000000000000081526004016102219190610a05565b60405180910390fd5b61023c6000838361024060201b60201c565b5050565b600073ffffffffffffffffffffffffffffffffffffffff168373ffffffffffffffffffffffffffffffffffffffff16036102925780600260008282546102869190610a4f565b92505081905550610365565b60008060008573ffffffffffffffffffffffffffffffffffffffff1673ffffffffffffffffffffffffffffffffffffffff1681526020019081526020016000205490508181101561031e578381836040517fe450d38c00000000000000000000000000000000000000000000000000000000815260040161031593929190610a92565b60405180910390fd5b8181036000808673ffffffffffffffffffffffffffffffffffffffff1673ffffffffffffffffffffffffffffffffffffffff16815260200190815260200160002081905550505b600073ffffffffffffffffffffffffffffffffffffffff168273ffffffffffffffffffffffffffffffffffffffff16036103ae57806002600082825403925050819055506103fb565b806000808473ffffffffffffffffffffffffffffffffffffffff1673ffffffffffffffffffffffffffffffffffffffff168152602001908152602001600020600082825401925050819055505b8173ffffffffffffffffffffffffffffffffffffffff168373ffffffffffffffffffffffffffffffffffffffff167fddf252ad1be2c89b69c2b068fc378daa952ba7f163c4a11628f55a4df523b3ef836040516104589190610ac9565b60405180910390a3505050565b6000604051905090565b600080fd5b600080fd5b600080fd5b600080fd5b6000601f19601f8301169050919050565b7f4e487b7100000000000000000000000000000000000000000000000000000000600052604160045260246000fd5b6104cc82610483565b810181811067ffffffffffffffff821117156104eb576104ea610494565b5b80604052505050565b60006104fe610465565b905061050a82826104c3565b919050565b600067ffffffffffffffff82111561052a57610529610494565b5b61053382610483565b9050602081019050919050565b60005b8381101561055e578082015181840152602081019050610543565b60008484015250505050565b600061057d6105788461050f565b6104f4565b9050828152602081018484840111156105995761059861047e565b5b6105a4848285610540565b509392505050565b600082601f8301126105c1576105c0610479565b5b81516105d184826020860161056a565b91505092915050565b6000819050919050565b6105ed816105da565b81146105f857600080fd5b50565b60008151905061060a816105e4565b92915050565b600073ffffffffffffffffffffffffffffffffffffffff82169050919050565b600061063b82610610565b9050919050565b61064b81610630565b811461065657600080fd5b50565b60008151905061066881610642565b92915050565b600080600080608085870312156106885761068761046f565b5b600085015167ffffffffffffffff8111156106a6576106a5610474565b5b6106b2878288016105ac565b945050602085015167ffffffffffffffff8111156106d3576106d2610474565b5b6106df878288016105ac565b93505060406106f0878288016105fb565b925050606061070187828801610659565b91505092959194509250565b600081519050919050565b7f4e487b7100000000000000000000000000000000000000000000000000000000600052602260045260246000fd5b6000600282049050600182168061075f57607f821691505b60208210810361077257610771610718565b5b50919050565b60008190508160005260206000209050919050565b60006020601f8301049050919050565b600082821b905092915050565b6000600883026107da7fffffffffffffffffffffffffffffffffffffffffffffffffffffffffffffffff8261079d565b6107e4868361079d565b95508019841693508086168417925050509392505050565b6000819050919050565b600061082161081c610817846105da565b6107fc565b6105da565b9050919050565b6000819050919050565b61083b83610806565b61084f61084782610828565b8484546107aa565b825550505050565b600090565b610864610857565b61086f818484610832565b505050565b5b818110156108935761088860008261085c565b600181019050610875565b5050565b601f8211156108d8576108a981610778565b6108b28461078d565b810160208510156108c1578190505b6108d56108cd8561078d565b830182610874565b50505b505050565b600082821c905092915050565b60006108fb600019846008026108dd565b1980831691505092915050565b600061091483836108ea565b9150826002028217905092915050565b61092d8261070d565b67ffffffffffffffff81111561094657610945610494565b5b6109508254610747565b61095b828285610897565b600060209050601f83116001811461098e576000841561097c578287015190505b6109868582610908565b8655506109ee565b601f19841661099c86610778565b60005b828110156109c45784890151825560018201915060208501945060208101905061099f565b868310156109e157848901516109dd601f8916826108ea565b8355505b6001600288020188555050505b505050505050565b6109ff81610630565b82525050565b6000602082019050610a1a60008301846109f6565b92915050565b7f4e487b7100000000000000000000000000000000000000000000000000000000600052601160045260246000fd5b6000610a5a826105da565b9150610a65836105da565b9250828201905080821115610a7d57610a7c610a20565b5b92915050565b610a8c816105da565b82525050565b6000606082019050610aa760008301866109f6565b610ab46020830185610a83565b610ac16040830184610a83565b949350505050565b6000602082019050610ade6000830184610a83565b92915050565b61112080610af36000396000f3fe608060405234801561001057600080fd5b50600436106100cf5760003560e01c806370a082311161008c57806395d89b411161006657806395d89b4114610202578063a9059cbb14610220578063dd62ed3e14610250578063f2fde38b14610280576100cf565b806370a08231146101aa578063715018a6146101da5780638da5cb5b146101e4576100cf565b806306fdde03146100d45780630752881a146100f2578063095ea7b31461010e57806318160ddd1461013e57806323b872dd1461015c578063313ce5671461018c575b600080fd5b6100dc61029c565b6040516100e99190610d74565b60405180910390f35b61010c60048036038101906101079190610e2f565b61032e565b005b61012860048036038101906101239190610e2f565b61034c565b6040516101359190610e8a565b60405180910390f35b61014661036f565b6040516101539190610eb4565b60405180910390f35b61017660048036038101906101719190610ecf565b610379565b6040516101839190610e8a565b60405180910390f35b6101946103a8565b6040516101a19190610f3e565b60405180910390f35b6101c460048036038101906101bf9190610f59565b6103b1565b6040516101d19190610eb4565b60405180910390f35b6101e26103f9565b005b6101ec61040d565b6040516101f99190610f95565b60405180910390f35b61020a610437565b6040516102179190610d74565b60405180910390f35b61023a60048036038101906102359190610e2f565b6104c9565b6040516102479190610e8a565b60405180910390f35b61026a60048036038101906102659190610fb0565b6104ec565b6040516102779190610eb4565b60405180910390f35b61029a60048036038101906102959190610f59565b610573565b005b6060600380546102ab9061101f565b80601f01602080910402602001604051908101604052809291908181526020018280546102d79061101f565b80156103245780601f106102f957610100808354040283529160200191610324565b820191906000526020600020905b81548152906001019060200180831161030757829003601f168201915b5050505050905090565b6103366105f9565b61034861034161040d565b8383610680565b5050565b600080610357610774565b905061036481858561077c565b600191505092915050565b6000600254905090565b600080610384610774565b905061039185828561078e565b61039c858585610680565b60019150509392505050565b60006012905090565b60008060008373ffffffffffffffffffffffffffffffffffffffff1673ffffffffffffffffffffffffffffffffffffffff168152602001908152602001600020549050919050565b6104016105f9565b61040b6000610822565b565b6000600560009054906101000a900473ffffffffffffffffffffffffffffffffffffffff16905090565b6060600480546104469061101f565b80601f01602080910402602001604051908101604052809291908181526020018280546104729061101f565b80156104bf5780601f10610494576101008083540402835291602001916104bf565b820191906000526020600020905b8154815290600101906020018083116104a257829003601f168201915b5050505050905090565b6000806104d4610774565b90506104e1818585610680565b600191505092915050565b6000600160008473ffffffffffffffffffffffffffffffffffffffff1673ffffffffffffffffffffffffffffffffffffffff16815260200190815260200160002060008373ffffffffffffffffffffffffffffffffffffffff1673ffffffffffffffffffffffffffffffffffffffff16815260200190815260200160002054905092915050565b61057b6105f9565b600073ffffffffffffffffffffffffffffffffffffffff168173ffffffffffffffffffffffffffffffffffffffff16036105ed5760006040517f1e4fbdf70000000000000000000000000000000000000000000000000000000081526004016105e49190610f95565b60405180910390fd5b6105f681610822565b50565b610601610774565b73ffffffffffffffffffffffffffffffffffffffff1661061f61040d565b73ffffffffffffffffffffffffffffffffffffffff161461067e57610642610774565b6040517f118cdaa70000000000000000000000000000000000000000000000000000000081526004016106759190610f95565b60405180910390fd5b565b600073ffffffffffffffffffffffffffffffffffffffff168373ffffffffffffffffffffffffffffffffffffffff16036106f25760006040517f96c6fd1e0000000000000000000000000000000000000000000000000000000081526004016106e99190610f95565b60405180910390fd5b600073ffffffffffffffffffffffffffffffffffffffff168273ffffffffffffffffffffffffffffffffffffffff16036107645760006040517fec442f0500000000000000000000000000000000000000000000000000000000815260040161075b9190610f95565b60405180910390fd5b61076f8383836108e8565b505050565b600033905090565b6107898383836001610b0d565b505050565b600061079a84846104ec565b90507fffffffffffffffffffffffffffffffffffffffffffffffffffffffffffffffff811461081c578181101561080c578281836040517ffb8f41b200000000000000000000000000000000000000000000000000000000815260040161080393929190611050565b60405180910390fd5b61081b84848484036000610b0d565b5b50505050565b6000600560009054906101000a900473ffffffffffffffffffffffffffffffffffffffff16905081600560006101000a81548173ffffffffffffffffffffffffffffffffffffffff021916908373ffffffffffffffffffffffffffffffffffffffff1602179055508173ffffffffffffffffffffffffffffffffffffffff168173ffffffffffffffffffffffffffffffffffffffff167f8be0079c531659141344cd1fd0a4f28419497f9722a3daafe3b4186f6b6457e060405160405180910390a35050565b600073ffffffffffffffffffffffffffffffffffffffff168373ffffffffffffffffffffffffffffffffffffffff160361093a57806002600082825461092e91906110b6565b92505081905550610a0d565b60008060008573ffffffffffffffffffffffffffffffffffffffff1673ffffffffffffffffffffffffffffffffffffffff168152602001908152602001600020549050818110156109c6578381836040517fe450d38c0000000000000000000000000000000000000000000000000000000081526004016109bd93929190611050565b60405180910390fd5b8181036000808673ffffffffffffffffffffffffffffffffffffffff1673ffffffffffffffffffffffffffffffffffffffff16815260200190815260200160002081905550505b600073ffffffffffffffffffffffffffffffffffffffff168273ffffffffffffffffffffffffffffffffffffffff1603610a565780600260008282540392505081905550610aa3565b806000808473ffffffffffffffffffffffffffffffffffffffff1673ffffffffffffffffffffffffffffffffffffffff168152602001908152602001600020600082825401925050819055505b8173ffffffffffffffffffffffffffffffffffffffff168373ffffffffffffffffffffffffffffffffffffffff167fddf252ad1be2c89b69c2b068fc378daa952ba7f163c4a11628f55a4df523b3ef83604051610b009190610eb4565b60405180910390a3505050565b600073ffffffffffffffffffffffffffffffffffffffff168473ffffffffffffffffffffffffffffffffffffffff1603610b7f5760006040517fe602df05000000000000000000000000000000000000000000000000000000008152600401610b769190610f95565b60405180910390fd5b600073ffffffffffffffffffffffffffffffffffffffff168373ffffffffffffffffffffffffffffffffffffffff1603610bf15760006040517f94280d62000000000000000000000000000000000000000000000000000000008152600401610be89190610f95565b60405180910390fd5b81600160008673ffffffffffffffffffffffffffffffffffffffff1673ffffffffffffffffffffffffffffffffffffffff16815260200190815260200160002060008573ffffffffffffffffffffffffffffffffffffffff1673ffffffffffffffffffffffffffffffffffffffff168152602001908152602001600020819055508015610cde578273ffffffffffffffffffffffffffffffffffffffff168473ffffffffffffffffffffffffffffffffffffffff167f8c5be1e5ebec7d5bd14f71427d1e84f3dd0314c0f7b2291e5b200ac8c7c3b92584604051610cd59190610eb4565b60405180910390a35b50505050565b600081519050919050565b600082825260208201905092915050565b60005b83811015610d1e578082015181840152602081019050610d03565b60008484015250505050565b6000601f19601f8301169050919050565b6000610d4682610ce4565b610d508185610cef565b9350610d60818560208601610d00565b610d6981610d2a565b840191505092915050565b60006020820190508181036000830152610d8e8184610d3b565b905092915050565b600080fd5b600073ffffffffffffffffffffffffffffffffffffffff82169050919050565b6000610dc682610d9b565b9050919050565b610dd681610dbb565b8114610de157600080fd5b50565b600081359050610df381610dcd565b92915050565b6000819050919050565b610e0c81610df9565b8114610e1757600080fd5b50565b600081359050610e2981610e03565b92915050565b60008060408385031215610e4657610e45610d96565b5b6000610e5485828601610de4565b9250506020610e6585828601610e1a565b9150509250929050565b60008115159050919050565b610e8481610e6f565b82525050565b6000602082019050610e9f6000830184610e7b565b92915050565b610eae81610df9565b82525050565b6000602082019050610ec96000830184610ea5565b92915050565b600080600060608486031215610ee857610ee7610d96565b5b6000610ef686828701610de4565b9350506020610f0786828701610de4565b9250506040610f1886828701610e1a565b9150509250925092565b600060ff82169050919050565b610f3881610f22565b82525050565b6000602082019050610f536000830184610f2f565b92915050565b600060208284031215610f6f57610f6e610d96565b5b6000610f7d84828501610de4565b91505092915050565b610f8f81610dbb565b82525050565b6000602082019050610faa6000830184610f86565b92915050565b60008060408385031215610fc757610fc6610d96565b5b6000610fd585828601610de4565b9250506020610fe685828601610de4565b9150509250929050565b7f4e487b7100000000000000000000000000000000000000000000000000000000600052602260045260246000fd5b6000600282049050600182168061103757607f821691505b60208210810361104a57611049610ff0565b5b50919050565b60006060820190506110656000830186610f86565b6110726020830185610ea5565b61107f6040830184610ea5565b949350505050565b7f4e487b7100000000000000000000000000000000000000000000000000000000600052601160045260246000fd5b60006110c182610df9565b91506110cc83610df9565b92508282019050808211156110e4576110e3611087565b5b9291505056fea2646970667358221220000350fb3b565a905fa2aab94f972ea9cbf3fb4b6af74a69b13cecf214b1e90d64736f6c634300081c0033a2646970667358221220d6d5ff09fc2c0b9a7ba8129b54894faf0ab50bede5e33adb27ed689173b883b864736f6c634300081c0033",
  "linkReferences": {},
  "deployedLinkReferences": {}
}